:100000000C9438000C9455000C9455000C94550039
:100010000C9455000C9455000C9455000C9455000C
:100020000C9455000C9455000C9455000C945500FC
:100030000C9455000C9455000C9455000C945500EC
:100040000C94B0030C9455000C9455000C9455007E
:100050000C9455000C9455000C9455000C945500CC
:100060000C9408040C9455000C9455000C94550005
:1000700011241FBECFEFD0E1DEBFCDBF12E0A0E064
:10008000B1E0EAEFF1E102C005900D92AE37B107A1
:10009000D9F722E0AEE7B2E001C01D92A73AB2075D
:1000A000E1F70E9403050C94FB080C9400008AB150
:1000B00080628AB98CED90E09093890080938800EB
:1000C00083E88093800081E0809381000895CF933E
:1000D000C82F88B18D7F88B982B18F709C2F907F97
:1000E000892B82B988B1816088B982E090E00E9452
:1000F000E80288B18E7F88B982E090E00E94E80231
:1001000022B12F7030E1C39FC0011124822B82B92C
:1001100088B1816088B982E090E00E94E80288B1ED
:100120008E7F88B982E090E00E94E80280ED97E03F
:100130000E94E802CF91089587B1826087B987B1A4
:10014000816087B981B1806F81B988B18D7F88B9AD
:1001500080ED97E00E94F90282B18F70806382B9CE
:1001600088B1816088B982E090E00E94E80288B19D
:100170008E7F88B982E090E00E94E80280E190E002
:100180000E94F90282B18F70806382B988B1816068
:1001900088B982E090E00E94E80288B18E7F88B939
:1001A00082E090E00E94E80280E991E00E94E8028B
:1001B00082B18F70806382B988B1816088B982E032
:1001C00090E00E94E80288B18E7F88B982E090E0DA
:1001D0000E94E80280E991E00E94E80282B18F70FB
:1001E000806282B988B1816088B982E090E00E9423
:1001F000E80288B18E7F88B982E090E00E94E80230
:1002000080EA90E00E94E80288E20E94670088E0AD
:100210000E94670081E00E94670086E00E946700FC
:100220000E94570008958CE00E946700089588E0BE
:100230000E946700089582E00E946700089581E0AF
:100240000E94670008956F70282F217030E02050C1
:100250003F4FF9018081860F80680E9467000895F2
:10026000CF93C82F88B1826088B982B18F709C2FDC
:10027000907F892B82B988B1816088B982E090E053
:100280000E94E80288B18E7F88B982E090E00E94E7
:10029000E80222B12F7030E1C39FC0011124822BEC
:1002A00082B988B1816088B982E090E00E94E8025A
:1002B00088B18E7F88B982E090E00E94E80280EDEC
:1002C00097E00E94E802CF910895CF93DF9360E01A
:1002D0000E942301D0E0C0E004C080E20E9430010F
:1002E0002196C031D105C8F3DF91CF910895EF92E7
:1002F000FF920F931F93CF93DF93E82EF92EC62F13
:10030000F70101900020E9F731978F010E191F09BD
:10031000862F0E94650160E08C2F0E942301D0E0AF
:10032000C0E0C017D10758F4C031D10540F4F7013F
:10033000EC0FFD1F80810E9430012196F2CFDF91EA
:10034000CF911F910F91FF90EF900895CF93DF937E
:10035000D82FC92F0E941F0160E08D2F9C2F0E9473
:100360007701DF91CF9108958AB180688AB983E0DF
:100370008093B30082E48093B00081E08093B10069
:1003800010927000089587B1806487B987B1806842
:1003900087B98FEF84B90E94B4010895E62FF0E089
:1003A000EE0FFF1FEE5FFE4F3081918128B12F7B52
:1003B00028B928B12F7728B985B928B1206428B980
:1003C00028B1206828B928B12F7B28B928B12F7708
:1003D00028B928B12F7B28B928B1206828B935B9A8
:1003E00028B12F7B28B928B12F7728B99F708F5F4C
:1003F00028B12F7B28B928B12F7728B985B988B1C2
:10040000806488B988B1806888B988B18F7B88B9E1
:1004100088B18F7788B988B18F7B88B988B18068B7
:1004200088B995B988B18F7B88B988B18F7788B939
:1004300008958F7198B19F7B98B998B19F7798B9BB
:1004400096E095B998B1906498B998B1906898B9C8
:1004500098B19F7B98B998B19F7798B998B19F7BD5
:1004600098B998B1906898B985B988B18F7B88B9E7
:1004700088B18F7788B90895806C98B19F7B98B9BF
:1004800098B19F7798B997E095B998B1906498B969
:1004900098B1906898B998B19F7B98B998B19F77B7
:1004A00098B998B19F7B98B998B1906898B985B977
:1004B00088B18F7B88B988B18F7788B908956F71BB
:1004C0008695885F98B19F7B98B998B19F7798B9C6
:1004D00085B988B1806488B988B1806888B988B1E5
:1004E0008F7B88B988B18F7788B988B18F7B88B9BD
:1004F00088B1806888B965B988B18F7B88B988B1BF
:100500008F7788B9089598B19F7B98B998B19F77F4
:1005100098B99BE095B998B1906498B998B19068F2
:1005200098B998B19F7B98B998B19F7798B998B1CD
:100530009F7B98B998B1906898B965B998B19F7B3D
:1005400098B998B19F7798B998B19F7B98B998B1AD
:100550009F7798B99CE095B998B1906498B998B193
:10056000906898B998B19F7B98B998B19F7798B9DE
:1005700098B19F7B98B998B1906898B975B998B1BE
:100580009F7B98B998B19F7798B98F7098B19F7BEE
:1005900098B998B19F7798B99DE095B998B1906452
:1005A00098B998B1906898B998B19F7B98B998B16B
:1005B0009F7798B998B19F7B98B998B1906898B98E
:1005C00085B988B18F7B88B988B18F7788B908954C
:1005D000F92FE82F000000000000000000000000DC
:1005E000000000000000000000000000319791F7BB
:1005F0000895F92FE82F24E01AEF00000000000012
:1006000000000000000000000000000000000000EA
:1006100000001A9591F72A9579F7319761F70895B7
:100620008AB18F7E8AB98AB18F7B8AB98AEF87BDFA
:1006300082E084BD94E095BD80936E0008958AB1F8
:100640008F608AB981B1887F81B98FE08BB982B11F
:10065000807F876082B90E9410030895CF92DF9255
:10066000EF92FF920F931F93CF93DF93E82EF92E13
:10067000D0E0C0E0D12CC12C35C0AE01440F551FD5
:100680004C0F5D1F480F591F21E030E002C0220FC0
:10069000331F4A95E2F720953095C222D322019666
:1006A00083309105DCF4262F30E0082E02C035950A
:1006B00027950A94E2F720FDE0CF9E01220F331F19
:1006C0002C0F3D1F280F391F41E050E002C0440F9E
:1006D000551F2A95E2F7C42AD52AE1CF8BB1802B8A
:1006E0008BB92196C430D105B4F49BB101E010E080
:1006F0000C2E02C0000F111F0A94E2F7802F809584
:1007000089238BB982E090E00E94F90260B16770A2
:1007100090E080E0C5CFF701808191818C159D0527
:1007200079F0FFE0DF22F701D182C08281E0DF9122
:10073000CF911F910F91FF90EF90DF90CF90089590
:1007400080E0F5CF90917F0281E0953009F080E064
:10075000089590917E0281E0953009F080E008953F
:100760001F920F920FB60F9211248F934C9B09C0CA
:1007700080917F02853028F480917F028F5F809383
:100780007F024C9909C080917F02882329F08091D3
:100790007F02815080937F024E9B09C080917E0230
:1007A000853028F480917E028F5F80937E024E997F
:1007B00009C080917E02882329F080917E028150B9
:1007C00080937E028F910F900FBE0F901F9018950F
:1007D00081B1877F81B9ACE7B0E080EE8C93EAE726
:1007E000F0E08FE080838C918C93808180648083A3
:1007F0000895EAE7F0E08081806880830895EAE761
:10080000F0E080818F778083089580918002089541
:100810001F920F920FB60F9211248F93EF93FF93B5
:100820008091790080938002EAE7F0E08081806423
:100830008083FF91EF918F910F900FBE0F901F90CB
:1008400018959093C5008093C40088E08093C10000
:1008500086E08093C2000895E82FF92F07C08091A9
:10086000C00085FFFCCF9093C60031969081911116
:10087000F6CF0895E62FF72F50E0DA011197AE0F6B
:10088000BF1F1C924250510915C0DF01A40FB51FB4
:100890009DEC899F912D1124969596959695292FDB
:1008A000220F220F290F220F821B805D8C93415053
:1008B0005109892F55234CF708950F931F93CF9318
:1008C000DF93082F192FC62FD72F0E94A903882343
:1008D000B1F08091A5029091A602089751F00E9474
:1008E000FF0381E0F8018083DF91CF911F910F9189
:1008F000089587E0FE0111928A95E9F7F0CF0E94F2
:10090000A2038823F9F0E091A502F091A6023196A6
:100910009F01ADECBCEC0E94EE05969587959695EF
:10092000879596958795AC01440F551F440F551F29
:10093000840F951F880F991F281B390B3093A6022F
:100940002093A502E091A502F091A602E859FD4F7F
:1009500010810E940504612F0E94CE05082F80910E
:10096000A5029091A60282959295907F9827807F0C
:10097000982760E088539E4F0E9477018091A502DE
:100980009091A6028530910590F4009761F5892B2E
:1009900009F0AACF088344E061EA72E0802F0E9448
:1009A0003A0461E081EA92E00E9477019DCF9C01C8
:1009B000255031092330310508F096CF0597C80F2F
:1009C000D91F1C8381E090E0112311F090E080E0BA
:1009D000880F991FFC01EC53FE4F61E080819181EB
:1009E0000E94770181CF0197C80FD91F098344E086
:1009F00061EA72E0802F0E943A0461E081EA92E0AD
:100A00000E94770171CFCDB7DEB72A970FB6F89461
:100A1000DEBF0FBECDBF0E94C3010E949C000E949A
:100A20001F030E94E8030E9413010E941F010E94FD
:100A30001B0181E089831B821A82FE01349687E0C4
:100A4000DF011D928A95E9F785E08C83D12C0FC0D8
:100A50000E94A203882371F019820E94F9030AC040
:100A6000BE016C5F7F4FCE0101960E945D048981BB
:100A70008111EECF8981882399F3CE0102960E94DD
:100A80002E03811151C082E090E00E94F902EFCF65
:100A90001F5F1C3008F080C0033008F048C0E12E12
:100AA000F12C21E030E0012E02C0220F331F0A9406
:100AB000E2F78A819B8128233923232B49F3A02E37
:100AC000B12C81E090E0002E02C0880F991F0A949B
:100AD000E2F78095D822AA0CBB1C8D2D0E943C0207
:100AE0006FE0C5010E945F02C70101964C81415031
:100AF000550B9A01220F331F240F351F220F331F6E
:100B0000220F331F820F931F21E630E0B9010E94AC
:100B1000DA058F599F4FB9010E94DA05682FC50188
:100B20000E94CE010F5FB4CF10E000E0B2CF102FD3
:100B300015C081E090E0002E02C0880F991F0A9432
:100B4000E2F7D82AE12EF12CEE0CFF1C8D2D0E942D
:100B50003C0260E0C7010E945F021F5F133048F350
:100B60008B818F938A818F9380E792E09F938F93FD
:100B70001F9280E28F9381E892E09F938F930E946F
:100B8000110660E081E892E00E9477010FB6F894C8
:100B9000DEBF0FBECDBF77CF102FE0CF991B79E01E
:100BA00004C0991F961708F0961B881F7A95C9F7FD
:100BB0008095089597FB072E16F4009407D077FDD3
:100BC00009D00E94FD0507FC05D03EF49095819563
:100BD0009F4F0895709561957F4F0895A29FB00132
:100BE000B39FC001A39F700D811D1124911DB29F61
:100BF000700D811D1124911D0895AA1BBB1B51E18D
:100C000007C0AA1FBB1FA617B70710F0A61BB70B7C
:100C1000881F991F5A95A9F780959095BC01CD0121
:100C20000895AEE0B0E0E7E1F6E00C94D2080D895B
:100C30001E8986E08C831A8309838F89988D813081
:100C400020E8920710F080E090E801979E838D8362
:100C5000AE01455E5F4F698D7A8DCE0101960E948F
:100C600043064D815E8157FD0AC02F8138854217AA
:100C700053070CF49A01020F131FF80110822E96ED
:100C8000E4E00C94EE08AFE0B0E0E9E4F6E00C94A8
:100C9000C4087C013B018A01DC0117961C921E925C
:100CA000169713968C9181FFC8C19AE0292EFE01F8
:100CB00031964F01D70113969C91F30193FD8591D5
:100CC00093FF81913F01882309F44EC1853239F4A5
:100CD00093FD859193FF81913F01853229F4B701FE
:100CE00090E00E943608E6CF30E0B12C412C512C28
:100CF000BFE1B51538F08B3209F188F4803201F18B
:100D0000833221F157FC3CC020ED280F2A3040F5FA
:100D100056FE1FC0B29C200D1124B22E06C08D328B
:100D200091F0803379F7689450F8F30193FD859141
:100D300093FF81913F018111DBCF22C0689451F86C
:100D4000689452F8F2CF689453F8EFCF689454F84F
:100D5000ECCF429C200D1124422E689455F8E5CF2B
:100D60008E3229F456FC00C1689456F8DECF8C36DA
:100D700019F4689457F8D9CF8C34F9F08836A9F271
:100D8000982F9F7D95549330D0F08336B9F18337F7
:100D9000D9F1833509F062C0D801CD90DD908D0185
:100DA0006B2D70E056FC02C06FEF7FEFC6010E9412
:100DB00020085C01689457F80EC031E0B6CF3323A9
:100DC000D1F0085F1F4FEFE3E983AA24A394B12C6D
:100DD0006401E89457F853FE2CC0342CA114B104DC
:100DE00069F5332009F466CFB70180E290E00E94F4
:100DF00036083A94F6CF0C5F1F4FE5CFD8018C919F
:100E000089830E5F1F4FE1CFF801C190D1908F0110
:100E10006B2D70E056FC02C06FEF7FEFC6010E94A1
:100E20002B085C01D6CFB70180E290E00E94360823
:100E30004A944A141B0409F0B0F7CFCFF60157FCCF
:100E4000859157FE81916F01B70190E00E943608AD
:100E500031103A94B1E0AB1AB108C0CF843619F022
:100E6000893609F071C0F80157FE67C06191719130
:100E7000819191918F01E52DEF76DE2E97FF09C0CC
:100E800090958095709561957F4F8F4F9F4F689497
:100E9000D7F82AE030E0A4010E946608C82EC818DE
:100EA000AC2C5D2CD6FE0CC0E89450F8CB1440F46A
:100EB000D4FE05C0D2FC03C05D2D5E7E552EAB2C4A
:100EC00054FE93C0FE01EC0DF11D8081803309F0CA
:100ED00085C0652D697E562E752D7870372E53FC92
:100EE00093C050FE8DC0BC2CA41410F4B40CBA18DE
:100EF00054FE90C0B70180E390E00E94360852FE95
:100F000007C088E751FC88E590E0B7010E943608E9
:100F1000CB1408F48BC0CA94D12C8FEFC81AD80A0E
:100F2000C80CD91CD6018E916D01B70190E00E94CA
:100F30003608C814D904B1F754CF61917191072EC6
:100F4000000C880B990B96CFD52CE894D4F82AE0A6
:100F5000853729F1F52DF97FDF2E8037A1F058F480
:100F60008835A1F08F36D1F0F701868197812F96D1
:100F7000E2E10C94E0088837B9F7D4FE02C0689427
:100F8000D2F820E10CC06894D4F8F7CF54FE03C027
:100F90002F2F2660D22E20E132E002C028E030E080
:100FA000F801D7FE15C041915191619171914C8723
:100FB0005D876E877F878F01A4016C857D858E8517
:100FC0009F850E946608C82EC818E894D7F868CF95
:100FD00081919191AC0170E060E0E9CF52FC02C0D8
:100FE000A3947ACFA394A39477CF852D867809F420
:100FF00073CFF6CFB70180E290E00E943608A39449
:10100000A414C0F3312C74CF342C3A18A41408F46F
:101010006FCFF8CF852D867809F47ACF8BE251FE19
:1010200080E257FC8DE2B70190E070CFB70180E31A
:1010300090E00E943608BA946BCF8FEF9FEF97CF66
:10104000FC010590615070400110D8F78095909593
:101050008E0F9F1F0895FC01615070400190011098
:10106000D8F7809590958E0F9F1F08950F931F932B
:10107000CF93DF93182F092FEB018B8181FD09C0DE
:101080001FEF0FEF812F902FDF91CF911F910F91C5
:10109000089582FF14C02E813F818C819D81281785
:1010A00039073CF4E881F981CF010196998388835F
:1010B00010838E819F8101969F838E83E3CFE88585
:1010C000F985812F0995892BA1F3DACFFA01AA2797
:1010D000283051F1203181F1E8946F936E7F6E5F7B
:1010E0007F4F8F4F9F4FAF4FB1E03ED0B4E03CD029
:1010F000670F781F891F9A1FA11D680F791F8A1F0C
:10110000911DA11D6A0F711D811D911DA11D20D072
:1011100009F468943F912AE0269F11243019305D2C
:101120003193DEF6CF010895462F4770405D41931D
:10113000B3E00FD0C9F7F6CF462F4F70405D4A336A
:1011400018F0495D31FD4052419302D0A9F7EACF32
:10115000B4E0A6959795879577956795BA95C9F761
:1011600000976105710508959B01AC010A2E069454
:101170005795479537952795BA95C9F7620F731F0D
:10118000841F951FA01D08952F923F924F925F924A
:101190006F927F928F929F92AF92BF92CF92DF9287
:1011A000EF92FF920F931F93CF93DF93CDB7DEB7EC
:1011B000CA1BDB0B0FB6F894DEBF0FBECDBF099480
:1011C0002A88398848885F846E847D848C849B84D7
:1011D000AA84B984C884DF80EE80FD800C811B81E5
:1011E000AA81B981CE0FD11D0FB6F894DEBF0FBE14
:0A11F000CDBFED010895F894FFCF84
:1011FA000040D10FEF0E170E4D0D8E0CDA0B300B8F
:10120A008F0AF7096809E1086108E90777070C07F7
:10121A00A7064706ED0598054705FC04B4047004C3
:10122A003104F403BC03860353032403F602CC02FD
:10123A00A4027E025A0238021802FA01DE01C30130
:10124A00AA0192017B01660152013F012D011C0195
:10125A000C01FD00EF00E100D500C900BE00B3009B
:10126A00A9009F0096008E0086007F00770071001B
:10127A006A0064005F005900540050004B004700A8
:10128A0043003F003C003800350032002F002D009B
:10129A002A00280026002400220020001E001C002C
:1012AA001B00190018001600150014001300120084
:1012BA0011001000730278024F63746176653A0078
:1012CA000000000000000000486F6C6420656E7624
:1012DA00656C6F70653A0000416C742E20656E76FD
:1012EA00656C6F70653A000041747461636B2065C8
:1012FA006E76656C6F70653A436F6E742E20656EFC
:10130A0076656C6F70653A004368616E6E656C2035
:10131A004120746F6E653A004368616E6E656C2099
:10132A004220746F6E653A004368616E6E656C2088
:10133A004320746F6E653A00526573657420646564
:10134A006661756C7473000045786974000000006A
:10135A000000000000000000080101010102020271
:0E136A00257800746F6E65006E6F6973650004
:00000001FF
